{
  "contractName": "NFTMarket",
  "abi": [
    {
      "inputs": [],
      "stateMutability": "nonpayable",
      "type": "constructor"
    },
    {
      "anonymous": false,
      "inputs": [
        {
          "indexed": true,
          "internalType": "uint256",
          "name": "itemId",
          "type": "uint256"
        },
        {
          "indexed": true,
          "internalType": "address",
          "name": "nftContract",
          "type": "address"
        },
        {
          "indexed": true,
          "internalType": "uint256",
          "name": "tokenId",
          "type": "uint256"
        },
        {
          "indexed": false,
          "internalType": "address",
          "name": "seller",
          "type": "address"
        },
        {
          "indexed": false,
          "internalType": "address",
          "name": "owner",
          "type": "address"
        },
        {
          "indexed": false,
          "internalType": "uint256",
          "name": "price",
          "type": "uint256"
        },
        {
          "indexed": false,
          "internalType": "bool",
          "name": "sold",
          "type": "bool"
        }
      ],
      "name": "marketItemCreated",
      "type": "event"
    },
    {
      "inputs": [],
      "name": "getListingPrice",
      "outputs": [
        {
          "internalType": "uint256",
          "name": "",
          "type": "uint256"
        }
      ],
      "stateMutability": "view",
      "type": "function",
      "constant": true
    },
    {
      "inputs": [],
      "name": "getOwner",
      "outputs": [
        {
          "internalType": "address",
          "name": "",
          "type": "address"
        }
      ],
      "stateMutability": "view",
      "type": "function",
      "constant": true
    },
    {
      "inputs": [
        {
          "internalType": "uint256",
          "name": "id",
          "type": "uint256"
        }
      ],
      "name": "getItems",
      "outputs": [
        {
          "components": [
            {
              "internalType": "uint256",
              "name": "itemId",
              "type": "uint256"
            },
            {
              "internalType": "uint256",
              "name": "tokenId",
              "type": "uint256"
            },
            {
              "internalType": "uint256",
              "name": "price",
              "type": "uint256"
            },
            {
              "internalType": "address",
              "name": "nftContract",
              "type": "address"
            },
            {
              "internalType": "address payable",
              "name": "seller",
              "type": "address"
            },
            {
              "internalType": "address payable",
              "name": "owner",
              "type": "address"
            },
            {
              "internalType": "string",
              "name": "itemName",
              "type": "string"
            },
            {
              "internalType": "string",
              "name": "itemDescription",
              "type": "string"
            },
            {
              "internalType": "string",
              "name": "tokenURI",
              "type": "string"
            },
            {
              "internalType": "bool",
              "name": "sold",
              "type": "bool"
            }
          ],
          "internalType": "struct NFTMarket.marketItem",
          "name": "",
          "type": "tuple"
        }
      ],
      "stateMutability": "view",
      "type": "function",
      "constant": true
    },
    {
      "inputs": [
        {
          "internalType": "address",
          "name": "nftContract",
          "type": "address"
        },
        {
          "internalType": "uint256",
          "name": "tokenId",
          "type": "uint256"
        },
        {
          "internalType": "uint256",
          "name": "price",
          "type": "uint256"
        },
        {
          "internalType": "string",
          "name": "name",
          "type": "string"
        },
        {
          "internalType": "string",
          "name": "description",
          "type": "string"
        },
        {
          "internalType": "string",
          "name": "tokenURI",
          "type": "string"
        }
      ],
      "name": "listItems",
      "outputs": [],
      "stateMutability": "payable",
      "type": "function",
      "payable": true
    },
    {
      "inputs": [
        {
          "internalType": "address",
          "name": "nftContract",
          "type": "address"
        },
        {
          "internalType": "uint256",
          "name": "itemId",
          "type": "uint256"
        }
      ],
      "name": "sellMarket",
      "outputs": [],
      "stateMutability": "payable",
      "type": "function",
      "payable": true
    },
    {
      "inputs": [],
      "name": "showMarketItem",
      "outputs": [
        {
          "components": [
            {
              "internalType": "uint256",
              "name": "itemId",
              "type": "uint256"
            },
            {
              "internalType": "uint256",
              "name": "tokenId",
              "type": "uint256"
            },
            {
              "internalType": "uint256",
              "name": "price",
              "type": "uint256"
            },
            {
              "internalType": "address",
              "name": "nftContract",
              "type": "address"
            },
            {
              "internalType": "address payable",
              "name": "seller",
              "type": "address"
            },
            {
              "internalType": "address payable",
              "name": "owner",
              "type": "address"
            },
            {
              "internalType": "string",
              "name": "itemName",
              "type": "string"
            },
            {
              "internalType": "string",
              "name": "itemDescription",
              "type": "string"
            },
            {
              "internalType": "string",
              "name": "tokenURI",
              "type": "string"
            },
            {
              "internalType": "bool",
              "name": "sold",
              "type": "bool"
            }
          ],
          "internalType": "struct NFTMarket.marketItem[]",
          "name": "",
          "type": "tuple[]"
        }
      ],
      "stateMutability": "view",
      "type": "function",
      "constant": true
    },
    {
      "inputs": [],
      "name": "showMyMarketItem",
      "outputs": [
        {
          "components": [
            {
              "internalType": "uint256",
              "name": "itemId",
              "type": "uint256"
            },
            {
              "internalType": "uint256",
              "name": "tokenId",
              "type": "uint256"
            },
            {
              "internalType": "uint256",
              "name": "price",
              "type": "uint256"
            },
            {
              "internalType": "address",
              "name": "nftContract",
              "type": "address"
            },
            {
              "internalType": "address payable",
              "name": "seller",
              "type": "address"
            },
            {
              "internalType": "address payable",
              "name": "owner",
              "type": "address"
            },
            {
              "internalType": "string",
              "name": "itemName",
              "type": "string"
            },
            {
              "internalType": "string",
              "name": "itemDescription",
              "type": "string"
            },
            {
              "internalType": "string",
              "name": "tokenURI",
              "type": "string"
            },
            {
              "internalType": "bool",
              "name": "sold",
              "type": "bool"
            }
          ],
          "internalType": "struct NFTMarket.marketItem[]",
          "name": "",
          "type": "tuple[]"
        }
      ],
      "stateMutability": "view",
      "type": "function",
      "constant": true
    },
    {
      "inputs": [],
      "name": "showCreatedNFTMarketItem",
      "outputs": [
        {
          "components": [
            {
              "internalType": "uint256",
              "name": "itemId",
              "type": "uint256"
            },
            {
              "internalType": "uint256",
              "name": "tokenId",
              "type": "uint256"
            },
            {
              "internalType": "uint256",
              "name": "price",
              "type": "uint256"
            },
            {
              "internalType": "address",
              "name": "nftContract",
              "type": "address"
            },
            {
              "internalType": "address payable",
              "name": "seller",
              "type": "address"
            },
            {
              "internalType": "address payable",
              "name": "owner",
              "type": "address"
            },
            {
              "internalType": "string",
              "name": "itemName",
              "type": "string"
            },
            {
              "internalType": "string",
              "name": "itemDescription",
              "type": "string"
            },
            {
              "internalType": "string",
              "name": "tokenURI",
              "type": "string"
            },
            {
              "internalType": "bool",
              "name": "sold",
              "type": "bool"
            }
          ],
          "internalType": "struct NFTMarket.marketItem[]",
          "name": "",
          "type": "tuple[]"
        }
      ],
      "stateMutability": "view",
      "type": "function",
      "constant": true
    }
  ],
  "bytecode": "0x6080604052662386f26fc1000060045534801561001b57600080fd5b5060016000908155600380546001600160a01b0319163317905561185f90819061004590396000f3fe60806040526004361061007b5760003560e01c8063796c5e941161004e578063796c5e94146100f3578063893d20e8146101205780638994b1ae14610148578063bc966b691461015d57600080fd5b806312da0eaa1461008057806312e85585146100ab578063232799a0146100c95780635856ed00146100de575b600080fd5b34801561008c57600080fd5b50610095610170565b6040516100a2919061144f565b60405180910390f35b3480156100b757600080fd5b506004546040519081526020016100a2565b3480156100d557600080fd5b506100956104bc565b3480156100ea57600080fd5b506100956107ff565b3480156100ff57600080fd5b5061011361010e3660046114b1565b610b42565b6040516100a291906114ca565b34801561012c57600080fd5b506003546040516001600160a01b0390911681526020016100a2565b61015b6101563660046115a3565b610d83565b005b61015b61016b36600461164e565b610fdc565b6060600061017d60015490565b9050600061018a60025490565b610194908361168e565b90506000808267ffffffffffffffff8111156101b2576101b2611500565b6040519080825280602002602001820160405280156101eb57816020015b6101d86112bd565b8152602001906001900390816101d05790505b50905060005b848110156104b35733600560006102098460016116a7565b81526020810191909152604001600020600501546001600160a01b0316036104a15760006102388260016116a7565b6000818152600560208181526040928390208351610140810185528154815260018201549281019290925260028101549382019390935260038301546001600160a01b0390811660608301526004840154811660808301529183015490911660a082015260068201805493945091929091839160c0840191906102ba906116ba565b80601f01602080910402602001604051908101604052809291908181526020018280546102e6906116ba565b80156103335780601f1061030857610100808354040283529160200191610333565b820191906000526020600020905b81548152906001019060200180831161031657829003601f168201915b5050505050815260200160078201805461034c906116ba565b80601f0160208091040260200160405190810160405280929190818152602001828054610378906116ba565b80156103c55780601f1061039a576101008083540402835291602001916103c5565b820191906000526020600020905b8154815290600101906020018083116103a857829003601f168201915b505050505081526020016008820180546103de906116ba565b80601f016020809104026020016040519081016040528092919081815260200182805461040a906116ba565b80156104575780601f1061042c57610100808354040283529160200191610457565b820191906000526020600020905b81548152906001019060200180831161043a57829003601f168201915b50505091835250506009919091015460ff1615156020909101528451859087908110610485576104856116f4565b6020026020010181905250848061049b9061170a565b95505050505b806104ab8161170a565b9150506101f1565b50949350505050565b606060006104c960015490565b905060006104d660025490565b6104e0908361168e565b90506000808267ffffffffffffffff8111156104fe576104fe611500565b60405190808252806020026020018201604052801561053757816020015b6105246112bd565b81526020019060019003908161051c5790505b50905060005b848110156104b35760006005816105558460016116a7565b81526020810191909152604001600020600501546001600160a01b0316036107ed5760006105848260016116a7565b6000818152600560208181526040928390208351610140810185528154815260018201549281019290925260028101549382019390935260038301546001600160a01b0390811660608301526004840154811660808301529183015490911660a082015260068201805493945091929091839160c084019190610606906116ba565b80601f0160208091040260200160405190810160405280929190818152602001828054610632906116ba565b801561067f5780601f106106545761010080835404028352916020019161067f565b820191906000526020600020905b81548152906001019060200180831161066257829003601f168201915b50505050508152602001600782018054610698906116ba565b80601f01602080910402602001604051908101604052809291908181526020018280546106c4906116ba565b80156107115780601f106106e657610100808354040283529160200191610711565b820191906000526020600020905b8154815290600101906020018083116106f457829003601f168201915b5050505050815260200160088201805461072a906116ba565b80601f0160208091040260200160405190810160405280929190818152602001828054610756906116ba565b80156107a35780601f10610778576101008083540402835291602001916107a3565b820191906000526020600020905b81548152906001019060200180831161078657829003601f168201915b50505091835250506009919091015460ff16151560209091015284518590879081106107d1576107d16116f4565b602002602001018190525084806107e79061170a565b95505050505b806107f78161170a565b91505061053d565b6060600061080c60015490565b9050600061081960025490565b610823908361168e565b90506000808267ffffffffffffffff81111561084157610841611500565b60405190808252806020026020018201604052801561087a57816020015b6108676112bd565b81526020019060019003908161085f5790505b50905060005b848110156104b35760006005816108988460016116a7565b81526020810191909152604001600020600401546001600160a01b031603610b305760006108c78260016116a7565b6000818152600560208181526040928390208351610140810185528154815260018201549281019290925260028101549382019390935260038301546001600160a01b0390811660608301526004840154811660808301529183015490911660a082015260068201805493945091929091839160c084019190610949906116ba565b80601f0160208091040260200160405190810160405280929190818152602001828054610975906116ba565b80156109c25780601f10610997576101008083540402835291602001916109c2565b820191906000526020600020905b8154815290600101906020018083116109a557829003601f168201915b505050505081526020016007820180546109db906116ba565b80601f0160208091040260200160405190810160405280929190818152602001828054610a07906116ba565b8015610a545780601f10610a2957610100808354040283529160200191610a54565b820191906000526020600020905b815481529060010190602001808311610a3757829003601f168201915b50505050508152602001600882018054610a6d906116ba565b80601f0160208091040260200160405190810160405280929190818152602001828054610a99906116ba565b8015610ae65780601f10610abb57610100808354040283529160200191610ae6565b820191906000526020600020905b815481529060010190602001808311610ac957829003601f168201915b50505091835250506009919091015460ff1615156020909101528451859087908110610b1457610b146116f4565b60200260200101819052508480610b2a9061170a565b95505050505b80610b3a8161170a565b915050610880565b610b4a6112bd565b6000828152600560208181526040928390208351610140810185528154815260018201549281019290925260028101549382019390935260038301546001600160a01b0390811660608301526004840154811660808301529183015490911660a082015260068201805491929160c084019190610bc6906116ba565b80601f0160208091040260200160405190810160405280929190818152602001828054610bf2906116ba565b8015610c3f5780601f10610c1457610100808354040283529160200191610c3f565b820191906000526020600020905b815481529060010190602001808311610c2257829003601f168201915b50505050508152602001600782018054610c58906116ba565b80601f0160208091040260200160405190810160405280929190818152602001828054610c84906116ba565b8015610cd15780601f10610ca657610100808354040283529160200191610cd1565b820191906000526020600020905b815481529060010190602001808311610cb457829003601f168201915b50505050508152602001600882018054610cea906116ba565b80601f0160208091040260200160405190810160405280929190818152602001828054610d16906116ba565b8015610d635780601f10610d3857610100808354040283529160200191610d63565b820191906000526020600020905b815481529060010190602001808311610d4657829003601f168201915b50505091835250506009919091015460ff16151560209091015292915050565b610d8b611141565b60008411610d9857600080fd5b6004543414610da657600080fd5b610db4600180546001019055565b6000610dbf60015490565b9050604051806101400160405280828152602001878152602001868152602001886001600160a01b03168152602001610df53390565b6001600160a01b0390811682526000602080840182905260408085018a905260608086018a905260808087018a905260a0968701859052888552600580855294839020885181559388015160018501559187015160028401558601516003830180549186166001600160a01b031992831617905590860151600483018054918616918316919091179055938501519181018054929093169190931617905560c08201516006820190610ea79082611769565b5060e08201516007820190610ebc9082611769565b506101008201516008820190610ed29082611769565b5061012091909101516009909101805460ff19169115159190911790556001600160a01b0387166323b872dd336040516001600160e01b031960e084901b1681526001600160a01b03909116600482015230602482015260448101899052606401600060405180830381600087803b158015610f4d57600080fd5b505af1158015610f61573d6000803e3d6000fd5b5050505085876001600160a01b0316827fe95771a348b71754f4d83726d2c5fb07502935c9675a83e1b5f84e24263644a3610f993390565b604080516001600160a01b0390921682526000602083018190529082018b9052606082015260800160405180910390a450610fd46001600055565b505050505050565b610fe4611141565b6000818152600560205260409020600281015460019091015434821461100957600080fd5b6000838152600560205260409020600401546001600160a01b0316330361102f57600080fd5b600083815260056020526040902060040154611054906001600160a01b03168361119f565b604080516323b872dd60e01b81523060048201523360248201526044810183905290516001600160a01b038616916323b872dd91606480830192600092919082900301818387803b1580156110a857600080fd5b505af11580156110bc573d6000803e3d6000fd5b505050506110c73390565b600084815260056020819052604090912090810180546001600160a01b03939093166001600160a01b031990931692909217909155600901805460ff19166001179055611118600280546001019055565b600354600454611131916001600160a01b03169061119f565b505061113d6001600055565b5050565b6002600054036111985760405162461bcd60e51b815260206004820152601f60248201527f5265656e7472616e637947756172643a207265656e7472616e742063616c6c0060448201526064015b60405180910390fd5b6002600055565b804710156111ef5760405162461bcd60e51b815260206004820152601d60248201527f416464726573733a20696e73756666696369656e742062616c616e6365000000604482015260640161118f565b6000826001600160a01b03168260405160006040518083038185875af1925050503d806000811461123c576040519150601f19603f3d011682016040523d82523d6000602084013e611241565b606091505b50509050806112b85760405162461bcd60e51b815260206004820152603a60248201527f416464726573733a20756e61626c6520746f2073656e642076616c75652c207260448201527f6563697069656e74206d61792068617665207265766572746564000000000000606482015260840161118f565b505050565b60405180610140016040528060008152602001600081526020016000815260200160006001600160a01b0316815260200160006001600160a01b0316815260200160006001600160a01b031681526020016060815260200160608152602001606081526020016000151581525090565b6000815180845260005b8181101561135357602081850181015186830182015201611337565b506000602082860101526020601f19601f83011685010191505092915050565b600061014082518452602083015160208501526040830151604085015260608301516113aa60608601826001600160a01b03169052565b5060808301516113c560808601826001600160a01b03169052565b5060a08301516113e060a08601826001600160a01b03169052565b5060c08301518160c08601526113f88286018261132d565b91505060e083015184820360e0860152611412828261132d565b915050610100808401518583038287015261142d838261132d565b92505050610120808401516114458287018215159052565b5090949350505050565b6000602080830181845280855180835260408601915060408160051b870101925083870160005b828110156114a457603f19888603018452611492858351611373565b94509285019290850190600101611476565b5092979650505050505050565b6000602082840312156114c357600080fd5b5035919050565b6020815260006114dd6020830184611373565b9392505050565b80356001600160a01b03811681146114fb57600080fd5b919050565b634e487b7160e01b600052604160045260246000fd5b600082601f83011261152757600080fd5b813567ffffffffffffffff8082111561154257611542611500565b604051601f8301601f19908116603f0116810190828211818310171561156a5761156a611500565b8160405283815286602085880101111561158357600080fd5b836020870160208301376000602085830101528094505050505092915050565b60008060008060008060c087890312156115bc57600080fd5b6115c5876114e4565b95506020870135945060408701359350606087013567ffffffffffffffff808211156115f057600080fd5b6115fc8a838b01611516565b9450608089013591508082111561161257600080fd5b61161e8a838b01611516565b935060a089013591508082111561163457600080fd5b5061164189828a01611516565b9150509295509295509295565b6000806040838503121561166157600080fd5b61166a836114e4565b946020939093013593505050565b634e487b7160e01b600052601160045260246000fd5b818103818111156116a1576116a1611678565b92915050565b808201808211156116a1576116a1611678565b600181811c908216806116ce57607f821691505b6020821081036116ee57634e487b7160e01b600052602260045260246000fd5b50919050565b634e487b7160e01b600052603260045260246000fd5b60006001820161171c5761171c611678565b5060010190565b601f8211156112b857600081815260208120601f850160051c8101602086101561174a5750805b601f850160051c820191505b81811015610fd457828155600101611756565b815167ffffffffffffffff81111561178357611783611500565b6117978161179184546116ba565b84611723565b602080601f8311600181146117cc57600084156117b45750858301515b600019600386901b1c1916600185901b178555610fd4565b600085815260208120601f198616915b828110156117fb578886015182559484019460019091019084016117dc565b50858210156118195787850151600019600388901b60f8161c191681555b5050505050600190811b0190555056fea2646970667358221220359cfbc70794e8502e23a8a578f26bb26bc12fd3afe03b6a5323a2f5c0ebd17c64736f6c63430008110033",
  "immutableReferences": {},
  "source": "// SPDX-License-Identifier: MIT\r\npragma solidity >=0.4.22 <0.9.0;\r\n\r\nimport \"@openzeppelin/contracts/utils/Counters.sol\";\r\nimport \"@openzeppelin/contracts/security/ReentrancyGuard.sol\";\r\nimport \"@openzeppelin/contracts/token/ERC721/ERC721.sol\";\r\nimport \"@openzeppelin/contracts/utils/Context.sol\";\r\nimport \"@openzeppelin/contracts/utils/Address.sol\";\r\n\r\ncontract NFTMarket is ReentrancyGuard, Context {\r\n    using Counters for Counters.Counter;\r\n\r\n    Counters.Counter private _itemId;\r\n    Counters.Counter private _itemSold;\r\n\r\n    address private owner;\r\n    uint256 private listingPrice = 0.01 ether;\r\n\r\n    constructor() {\r\n        owner = payable(_msgSender());\r\n    }\r\n\r\n    struct marketItem {\r\n        uint256 itemId;\r\n        uint256 tokenId;\r\n        uint256 price;\r\n        address nftContract;\r\n        address payable seller;\r\n        address payable owner;\r\n        string itemName;\r\n        string itemDescription;\r\n        string tokenURI;\r\n        bool sold;\r\n    }\r\n\r\n    mapping(uint256 => marketItem) private itemToMarket;\r\n\r\n    event marketItemCreated(\r\n        uint256 indexed itemId,\r\n        address indexed nftContract,\r\n        uint256 indexed tokenId,\r\n        address seller,\r\n        address owner,\r\n        uint256 price,\r\n        bool sold\r\n    );\r\n\r\n    function getListingPrice() public view returns (uint256) {\r\n        return listingPrice;\r\n    }\r\n\r\n    function getOwner() public view returns (address) {\r\n        return owner;\r\n    }\r\n\r\n    function getItems(uint256 id) public view returns (marketItem memory) {\r\n        return itemToMarket[id];\r\n    }\r\n\r\n    function listItems(\r\n        address nftContract,\r\n        uint256 tokenId,\r\n        uint256 price,\r\n        string memory name,\r\n        string memory description,\r\n        string memory tokenURI\r\n    ) public payable nonReentrant {\r\n        require(price > 0);\r\n        require(msg.value == listingPrice);\r\n        _itemId.increment();\r\n        uint256 itemId = _itemId.current();\r\n        itemToMarket[itemId] = marketItem(\r\n            itemId,\r\n            tokenId,\r\n            price,\r\n            nftContract,\r\n            payable(_msgSender()),\r\n            payable(address(0)),\r\n            name,\r\n            description,\r\n            tokenURI,\r\n            false\r\n        );\r\n\r\n        IERC721(nftContract).transferFrom(_msgSender(), address(this), tokenId);\r\n\r\n        emit marketItemCreated(\r\n            itemId,\r\n            nftContract,\r\n            tokenId,\r\n            _msgSender(),\r\n            address(0),\r\n            price,\r\n            false\r\n        );\r\n    }\r\n\r\n    function sellMarket(address nftContract, uint256 itemId)\r\n        public\r\n        payable\r\n        nonReentrant\r\n    {\r\n        uint256 price = itemToMarket[itemId].price;\r\n        uint256 tokenId = itemToMarket[itemId].tokenId;\r\n\r\n        require(msg.value == price);\r\n        require(_msgSender() != itemToMarket[itemId].seller);\r\n\r\n        Address.sendValue(itemToMarket[itemId].seller, price);\r\n        IERC721(nftContract).transferFrom(address(this), _msgSender(), tokenId);\r\n        itemToMarket[itemId].owner = payable(_msgSender());\r\n        itemToMarket[itemId].sold = true;\r\n        _itemSold.increment();\r\n        Address.sendValue(payable(owner), listingPrice);\r\n    }\r\n\r\n    function showMarketItem() public view returns (marketItem[] memory) {\r\n        uint256 itemCount = _itemId.current();\r\n        uint256 unsoldItems = itemCount - _itemSold.current();\r\n        uint256 currentIndex = 0;\r\n\r\n        marketItem[] memory items = new marketItem[](unsoldItems);\r\n        for (uint256 index = 0; index < itemCount; index++) {\r\n            if (itemToMarket[index + 1].owner == address(0)) {\r\n                uint256 CurrentId = index + 1;\r\n                marketItem storage currentItem = itemToMarket[CurrentId];\r\n                items[currentIndex] = currentItem;\r\n                currentIndex++;\r\n            }\r\n        }\r\n        return items;\r\n    }\r\n\r\n    function showMyMarketItem() public view returns (marketItem[] memory) {\r\n        uint256 itemCount = _itemId.current();\r\n        uint256 unsoldItems = itemCount - _itemSold.current();\r\n        uint256 currentIndex = 0;\r\n\r\n        marketItem[] memory items = new marketItem[](unsoldItems);\r\n        for (uint256 index = 0; index < itemCount; index++) {\r\n            if (itemToMarket[index + 1].owner == _msgSender()) {\r\n                uint256 CurrentId = index + 1;\r\n                marketItem storage currentItem = itemToMarket[CurrentId];\r\n                items[currentIndex] = currentItem;\r\n                currentIndex++;\r\n            }\r\n        }\r\n        return items;\r\n    }\r\n\r\n    function showCreatedNFTMarketItem() public view returns (marketItem[] memory) {\r\n        uint256 itemCount = _itemId.current();\r\n        uint256 unsoldItems = itemCount - _itemSold.current();\r\n        uint256 currentIndex = 0;\r\n\r\n        marketItem[] memory items = new marketItem[](unsoldItems);\r\n        for (uint256 index = 0; index < itemCount; index++) {\r\n            if (itemToMarket[index + 1].seller == address(0)) {\r\n                uint256 CurrentId = index + 1;\r\n                marketItem storage currentItem = itemToMarket[CurrentId];\r\n                items[currentIndex] = currentItem;\r\n                currentIndex++;\r\n            }\r\n        }\r\n        return items;\r\n    }\r\n}\r\n",
  "sourcePath": "C:\\Users\\sinab\\OneDrive\\Desktop\\Code\\NFT Market\\App\\contracts\\NFTMarket.sol",
  "compiler": {
    "name": "solc",
    "version": "0.8.17+commit.8df45f5f.Emscripten.clang"
  },
  "schemaVersion": "3.4.11",
  "updatedAt": "2023-01-01T06:37:52.590Z",
  "networkType": "ethereum",
  "devdoc": {
    "kind": "dev",
    "methods": {},
    "version": 1
  },
  "userdoc": {
    "kind": "user",
    "methods": {},
    "version": 1
  }
}